:020000040800F2
:1000000078060020CD0100088B0C0008ED0A0008DE
:10001000890C0008CF020008630D000800000000F2
:100020000000000000000000000000008F0C00082D
:10003000D1020008000000008D0C0008050D00082A
:10004000E7010008E7010008E7010008E7010008F0
:10005000E7010008E7010008E7010008E7010008E0
:10006000E7010008E7010008E7010008E7010008D0
:10007000E7010008E7010008E7010008E7010008C0
:10008000E7010008E7010008E7010008E7010008B0
:10009000E7010008E7010008E7010008E7010008A0
:1000A000E7010008E7010008E7010008E701000890
:1000B000E7010008E7010008E7010008E701000880
:1000C000E7010008E7010008E7010008E701000870
:1000D000E7010008E7010008E7010008E701000860
:1000E000E7010008E7010008E7010008E701000850
:1000F000E7010008E7010008E7010008E701000840
:10010000E7010008E7010008E7010008E70100082F
:10011000E7010008E7010008E7010008E70100081F
:10012000E7010008E7010008E7010008E70100080F
:1001300000F002F800F03AF80AA090E8000C8244BF
:100140008344AAF10107DA4501D100F02FF8AFF29C
:10015000090EBAE80F0013F0010F18BFFB1A43F0A5
:10016000010318472811000048110000103A24BF6D
:1001700078C878C1FAD8520724BF30C830C144BF0C
:1001800004680C607047000000230024002500264E
:10019000103A28BF78C1FBD8520728BF30C148BFEA
:1001A0000B6070471FB51FBD10B510BD00F058F8AB
:1001B0001146FFF7F7FF00F0E5FD00F076F803B415
:1001C000FFF7F2FF03BC00F07BF80000094880470E
:1001D00009480047FEE7FEE7FEE7FEE7FEE7FEE729
:1001E000FEE7FEE7FEE7FEE704480549054A064B41
:1001F00070470000610D0008310100087800002000
:100200007806002078020020780200204FF00002DB
:1002100000B5134694469646203922BFA0E80C50FC
:10022000A0E80C50B1F12001BFF4F7AF090728BFD7
:10023000A0E80C5048BF0CC05DF804EB890028BF53
:1002400040F8042B08BF704748BF20F8022B11F07C
:10025000804F18BF00F8012B7047704770477047F8
:10026000754600F029F8AE4605006946534620F071
:100270000700854618B020B5FFF7B6FFBDE820405F
:100280004FF000064FF000074FF000084FF0000B52
:1002900021F00701AC46ACE8C009ACE8C009ACE805
:1002A000C009ACE8C0098D4670470446AFF3008032
:1002B0002046FFF784FF000000487047140000202C
:1002C00001491820ABBEFEE7260002007047FEE79A
:1002D0007047000070B5044600F010F90546601C38
:1002E00002D004480078044400F008F9401BA04202
:1002F000FAD370BD040000202DE9F84FDFF8C89153
:10030000002409F1040A0AF1040B23460F270BF11C
:10031000040ED1E00125A54006EA0502AA4276D1E5
:10032000DFF8A8C14E68A6EB0C0866452BD00DDCA3
:10033000032E34D005DC36B3012E19D0022E2FD176
:100340001BE0112E16D0122E2AD119E0B8F5881F05
:1003500019D006DCB8F5803F15D0B8F5801F1FD145
:1003600011E0B8F5001F0ED0B8F5041F18D10AE04F
:10037000CB6815E0CB681B1D12E0CB6808330FE09B
:10038000CB680C330CE08B682BB1012B4FF00803CA
:1003900003D0456104E0042302E0056100E000238E
:1003A000FF2A01D8064601E000F104064FEA840561
:1003B00001D9A5F12005D6F8008007FA05FC28EA46
:1003C0000C0803FA05F548EA0508C6F800804D68F0
:1003D000ED0070D53E4DAE6946F00106AE61AD69E7
:1003E00024F0030605F0010500953A4D06EB050CD7
:1003F000DCF80850A607360F07FA06F825EA0805C4
:10040000DFF8D480404503D14FF0000825E052E0EA
:10041000DFF8C880404502D14FF001081DE0DFF849
:10042000C080404502D14FF0020816E0DFF8B480EA
:10043000404502D14FF003080FE0DFF8AC804045A3
:1004400002D14FF0040808E0DFF8A080404502D157
:100450004FF0050801E04FF0060808FA06F848EAF0
:100460000508CCF808804D68D9F80060ED034D46CA
:1004700001D5164300E096432E604D68DAF800601F
:10048000AD03554601D5164300E096432E604D68F6
:10049000DBF80060ED025D4601D5164300E09643AF
:1004A0002E604D68DEF80060AD02754601D516433A
:1004B00000E096432E60641C0A681646E2407FF412
:1004C00029AFBDE8F88F00000004014000001110C2
:1004D000001002400000014000080140000C0140F3
:1004E000001001400014014000180140001C0140B0
:1004F0000AB1016170470904FBE700000148806808
:10050000704700000400002002488168027811440E
:100510008160704704000020074810B5016841F071
:1005200010010160032000F05FF80F2000F006F8D2
:1005300000F024F8002010BD0020024070B50D4DE1
:1005400004464FF47A712878B1FBF0F00A49096843
:10055000B1FBF0F000F0B6FA48B9102C07D2002237
:100560002146501E00F020F800206C6070BD012074
:1005700070BD00000400002010000020094808B5EC
:10058000816941F001018161816901F001010091FE
:10059000C16941F08051C161C06900F08050009094
:1005A00008BD000000100240F0B40E4B1B680C4662
:1005B000C3F30223C3F10705042D00D90425191D37
:1005C000072901D2002300E0DB1E012606FA05F10F
:1005D000491E214099409E40761E16403143F0BC92
:1005E00000F0C0BB0CED00E0064900F0070208680F
:1005F0004FF6FF03184040EA0220034A1043086008
:10060000704700000CED00E00000FA052DE9F0470E
:100610000F46050061D0434E306800F00700B84235
:1006200009D2306820F0070038433060306800F0AD
:100630000700B84251D128683B4C810712D54007CA
:1006400003D5606840F4E06060602878000703D557
:10065000606840F4605060606068A96820F0F00055
:10066000084360602878C00728D06868012810D047
:100670002168022810D0890700292EDA616821F04C
:10068000030101436160FFF739FF804641F2883979
:100690000DE021688903EFE78901EDE7FFF72EFF01
:1006A000A0EB0801494502D90320BDE8F087606846
:1006B000696800F00C00B0EB810FEFD1306800F0FA
:1006C0000700B8420BD9306820F00700384330608B
:1006D000306800F00700B84201D00120E5E7287833
:1006E000400705D56068E96820F4E0600843606071
:1006F0002878000706D56068296920F4605040EA30
:10070000C100606000F018F86168084AC1F3031185
:10071000515CC8400649086006480068FFF70EFFB4
:100720000020C2E700200240001002407C120008B6
:10073000100000200800002012A185B00FC98DE82C
:100740000F0014A0144A006804905168134801F087
:100750000C03042B10D0082B0ED1C1F38343C90323
:100760001DF803000AD5516804AAC1F34041515C49
:100770000A4A5043B0FBF1F005B0704708494843BE
:10078000FAE7000002030405060708090A0B0C0D2E
:100790000E0F1010010200000010024000127A003B
:1007A00000093D002DE9F84F040070D02078C04DBD
:1007B000C00749D06868C0F38100012807D0686885
:1007C000C0F38100022809D16868C00306D52868F3
:1007D000800339D560680028E7D035E06068B0F55F
:1007E000803F0BD010B1B0F5A02F11D0286820F4B5
:1007F00080302860286820F4802002E0286840F4D7
:1008000080302860606890B1FFF778FE06460AE005
:10081000286840F480202860F0E700BFFFF76EFEF4
:10082000801B642873D828688003F7D50CE0FFF795
:1008300065FE064605E000BFFFF760FE801B6428EA
:10084000F0D828688003F7D420789A4E80074FF0BC
:1008500001094FF0000839D5686810F00C0F07D077
:100860006868C0F38100022809D16868C00306D413
:100870002868800714D52069012808D110E0206974
:10088000B0B1C6F80090FFF739FE074605E00AE16F
:10089000FFF734FEC01B0228C4D828688007F7D5AC
:1008A0002868616920F0F80040EAC10028600DE086
:1008B000C6F80080FFF722FE074604E0FFF71EFEA1
:1008C000C01B022823D828688007F7D420780007A7
:1008D0002CD57948A169D9B1C0F80090FFF70EFE78
:1008E000074604E0FFF70AFEC01B02280FD8686A1B
:1008F0008007F7D571484FF4FA510068B0FBF1F06A
:10090000009000BF0098411E0091FAD20EE080E0F6
:10091000C0F80080FFF7F2FD074604E0FFF7EEFDA8
:10092000C01B022875D8686A8007F7D42078400772
:1009300060D5E8690027C00008D4E86940F080501D
:10094000E861E869012700F0805000905C48016888
:10095000C90513D40168834641F480710160FFF733
:10096000CDFD824606E000BFFFF7C8FDA0EB0A0000
:1009700064284ED8DBF80000C005F5D5E0680128F2
:100980000AD008B1052813D0286A20F00100286297
:10099000286A20F0040002E0286A40F00100286282
:1009A000E06841F2883B98B1FFF7A8FD82460BE072
:1009B000286A40F004002862EEE700BFFFF79EFDC2
:1009C000A0EB0A0159455AD8286A8007F6D50CE0F1
:1009D000FFF794FD824605E0FFF790FDA0EB0A01CA
:1009E00059454CD8286A8007F6D41FB1E86920F031
:1009F0008050E861E06988B36968C1F38101022928
:100A000044D00228C6F8608004D0FFF777FD044682
:100A100038E034E0FFF772FD074604E0FFF76EFDB3
:100A2000C01B02282BD828688001F7D4206AB0F5B3
:100A3000803F05D16868A16820F4003008436860F1
:100A4000D4E908010843696821F474110843686017
:100A5000C6F86090FFF752FD044606E025E000BFAF
:100A6000FFF74CFD001B022809D828688001F7D544
:100A70001BE000BFFFF742FD001B022802D9032044
:100A8000BDE8F88F28688001F4D40EE00128F7D083
:100A90006868226A00F48031914204D1616A00F4EE
:100AA0007010884201D00120EAE70020E8E700004A
:100AB0000010024000004242800442421000002028
:100AC0000070004010B5401EB0F1807F01D30120BE
:100AD00010BD4FF0E02460610F21601700F042F973
:100AE0000020A06107202061002010BDFEE700006B
:100AF0002DE9F0473E4C0646012806D1207808B97A
:100B000008202070C0B2401E20703A4D2078DFF8D7
:100B1000E890AF144FF4004870B1012813D00228B8
:100B20001ED0032823D0042828D0052832D0062838
:100B30003CD007283CD04FE0012220212846FFF777
:100B4000D7FC002201E001220BE080212846FFF7BC
:100B5000CFFC002239462846FFF7CAFC002237E0C6
:100B6000002220212846FFF7C3FC0122EDE70022E6
:100B700020212846FFF7BCFC012205E000222021AD
:100B80002846FFF7B5FC002280212846FFF7B0FC7D
:100B90000122DFE7002220212846FFF7A9FC0022DE
:100BA00080212846FFF7A4FC01220CE0002200E08F
:100BB000012220212846FFF79BFC002280212846A5
:100BC000FFF796FC002239462846FFF791FC0122E8
:100BD00041464846FFF78CFC002E07D12078401C88
:100BE000C0B22070082801D100202070BDE8F08735
:100BF0000000002000080140000C01402DE9F043F6
:100C000085B000241D4800940194029403948169E6
:100C100041F004018161816901F00401049181695D
:100C200041F0080181618069DFF8548000F008001C
:100C30004FF485550490002229464046FFF758FCA2
:100C4000DFF840904FF40047002239464846FFF74E
:100C50004FFC0095022601250396CDE90154694613
:100C60004046FFF749FB00970396CDE901546946DA
:100C70004846FFF741FB05B0BDE8F0830010024095
:100C800000080140000C0140FEE7FEE77047704796
:100C900070B50E46002400F012FA0022094B00F055
:100CA00087F8062200F0A4FA00F0DAF9054606E01B
:100CB0003046FFF71DFF0220FFF70CFB641CAC421F
:100CC000F6DB70BD0080164010B50C4C00222021D0
:100CD0002046FFF70DFC002280212046FFF708FC8C
:100CE0000022A1142046FFF703FCBDE810400022BB
:100CF0004FF400410248FFF7FBBB00000008014031
:100D0000000C0140FFF700BC30B58FB028216846C9
:100D1000FFF77CFA14210AA8FFF778FA01210804EA
:100D2000CDE900100024029402250491CDE907507A
:100D3000C00009906846FFF735FD08B172B6FEE7BE
:100D40000F200A90CDE90B540D9401210AA80E94AE
:100D5000FFF75CFC002801D072B6FEE70FB030BD93
:100D60007047FEE70907090E002804DB00F1E020C8
:100D700080F80014704700F00F0000F1E02080F8C8
:100D8000141D7047FFF7C8FBFFF7BEFFFFF736FFE4
:100D900000214FF4B470FFF77BFFFFF795FFFEE7EC
:100DA00002494FF0000000F0F1B900BF0000F87FE9
:100DB0002DE9C04130B4DFF8A0C23CEA111418BFDD
:100DC0003CEA131400F0EC8081EA03051CEA1114DC
:100DD00044EAD57418BF1CEA131500F0C780A4EBD1
:100DE00005044FF0004545EAC12145EAC32341EA25
:100DF000505143EA525304F17F74994204F5003490
:100E00004FEAC0204FEAC22208BF904200F09C8007
:100E10004FEA13650FF24016765D4FEA134506FB65
:100E200005F7C7F1807706FB07F74FEAD737A7FB2F
:100E300003687642C8F58038A7FB06CE38BFA8F114
:100E4000010807FB08E64FF0000EA6FB028CE6FB4C
:100E500003CEDCF1000CCEF1004E38BFAEF1010E36
:100E6000A6FB0C584FF000074FF00005E6FB0E877D
:100E7000A1FB08C6A0FB07CE16EB0E0645F1000548
:100E8000E1FB076515F1E04E7EBFA4F580345FEA13
:100E900046066D4116F1800745F100054FEA172718
:100EA0004FEA066647EA0567A6F1DE46B6F1805FBF
:100EB0004FEA15251FD9384624F0010C05EBC47103
:100EC000BCF1FE6F01EB0C1102D8F0BCBDE8008153
:100ED00024425CBF01F5801E9EEAC47F02D4F0BCB0
:100EE000BDE80081244238D4F0BCA1F1C041BDE886
:100EF000004100F045B94FEAD22242EA43524FEA9C
:100F0000D323A7FB02864FEAD02040EA415007FBDB
:100F100003661EEA0E0F4FEAD12105FB026658BF99
:100F2000A6EB0056B6EB00564FEA520E4EEAC37ED1
:100F300018EB0E0E56EB530EBDD518EB02085E41B2
:100F40007F1C55F10005B6E74FF480154FF0000700
:100F50004FF000064FF00008ADE7F0BC4FF0000086
:100F600001F1C04101F00041BDE8008111EA0C1F10
:100F70000CEA131500D00CE013EA0C1F00F02580DA
:100F80004FF00000F0BC81EA030101F00041BDE830
:100F90000081F0BCBDE8004181EA030100F0F0B837
:100FA000F0BCBDE8004170B500F09CF8097EFC3E45
:100FB00000F007B881EA03014FF0000001F00041A2
:100FC000704781EA030100F0DBB8F0BCBDE80041E6
:100FD0004FF0000021497047FFFDFBF9F7F5F4F2EF
:100FE000F0EEEDEBE9E8E6E4E3E1E0DEDDDBDAD8C4
:100FF000D7D5D4D3D1D0CFCDCCCBCAC8C7C6C5C422
:10100000C2C1C0BFBEBDBCBBBAB9B8B7B6B5B4B338
:10101000B2B1B0AFAEADACABAAA9A8A8A7A6A5A423
:10102000A3A3A2A1A09F9F9E9D9C9C9B9A999998E7
:101030009797969595949393929191908F8F8E8E8A
:101040008D8C8C8B8B8A8989888887878685858417
:1010500084838382828181800000FF070000F87F03
:101060004FEA41034FEA5353A3F58063D3F11E03C4
:10107000C8BFD3F1210C0CDD4FF0004242EAC1227F
:1010800042EA505232FA03FC8CEAE17CACEBE170AC
:101090007047102BC4BF0020704703F5787CBCF16B
:1010A000FF3F04D06FF0004282EA2100704770B524
:1010B00000F018F84992248000207047F2E7B0FA57
:1010C00080F310FA03F10AD0C3F11D0303F5806326
:1010D0004FEA41504FEA035202EBD12170474FF0E3
:1010E000000070470EF1020E2EF0030E5EF8046B46
:1010F000364205D4012A43EB030515F5001F12D82B
:10110000012841EB010C1CF5001F0CD80ED14FEA51
:10111000D17C15F5001F0CEB4C0C0CF1020C08BF38
:101120004CEBD37C04E04FF0080C01E04FEAD37C99
:101130000CEB4C0526FA05F606F00706B6F1040C92
:1011400006D20EEB860CBDE870404CF0010C6047F7
:10115000DFE80CF0090B02024FF000414FF00000F5
:10116000A1F5002170BD19461046012851EB01047C
:1011700018BFD4F5001484BF002001F0004170BDF9
:101180000808A0F500114FEA310170470CF00F0379
:10119000092B08BF082000F059800A2B0BD0082B20
:1011A00018BF704708BF1CF0400F0AD04FF0000076
:1011B0004FF0000170471CF0400F18BF4FF0004087
:1011C00070471CF0100F08D020F0704300F07F42F1
:1011D00042EAD3014FEA4370704700F0604021F0CB
:1011E0007F4242EA000201F07F4040EA727070479D
:1011F0004FF0FF0C4CF4E06C1CEA11531CBF9CEA4E
:10120000030C9445C2BFDA4201EB02517047002B38
:101210000DD0BCF1000F0FD0002A01F00041A4BF97
:1012200041F0E04141F07F614FF00000704701F074
:1012300000414FF00000704750EA01334FF09B0C23
:1012400018BF4CF0806C7FF4ABAD70471CF4801F6E
:1012500011D01CF4E02F03D06FEACC314900704765
:101260004FF04050EFF3008222F0704242EA000259
:1012700082F3008870474FF00000704700000000C4
:10128000000000000102030406070809AC12000870
:1012900000000020140000006C010008C0120008CB
:1012A000140000206406000088010008000000000F
:1012B0000100000010000000000000000024F40005
:0400000508000131BD
:00000001FF
